:06000000010A64001F0B61
:10023E00080C06006600E307250B260B4F0B010C7E
:10024E00F101000C0306010CF201000C0306010C77
:10025E00F301000C0306010CF4016606370B380B94
:10026E00340B410C2900EE0C2800E8023C0BE9028D
:10027E003C0B00006607440B450B410B410C29005B
:10028E00EE0C2800E802490BE902490B00005F0B57
:10029E00010C3C00000C3D00000C3E00000C3F0029
:1002AE001F0234001E0233001D0232001C023100F8
:1002BE00C00C0200000C3C00000C3D00000C3E0087
:1002CE00000C3F001F022D001E022C001D022B00F1
:1002DE001C022A00B00B06056E000D0C2900FB0C4B
:1002EE002800E802780BE902780B7D0B6606800B7E
:1002FE00810B820BE20B010CEE01140C8E00030736
:10030E00890B8A0B740B06046F000D0C2900FB0C75
:10031E002800E802900BE902900B950B6606980BED
:10032E00990B9A0BE20B010CEF01140C8F000307D3
:10033E00A10BA20B8C0B010CEA01000C0306010CA5
:10034E00EB01000C0306010CEC01000C0306010C82
:10035E00ED0111023C0012023D0013023E00140298
:10036E003F001F028D004307C60B1E028C00430781
:10037E00C60B1D028B004307C60B1C028A00030727
:10038E00C90BCA0B720B70000D0C2900FB0C280058
:10039E00E802CF0BE902CF0BD40B6606D70BD80BB6
:1003AE00D90BE20B010CF001320C90000307E00BAD
:1003BE00E10BCB0B610B0604410C2900EE0C28005F
:1003CE00E802E70BE902E70B00006607EF0BF00B04
:1003DE00EC0B410C2900EE0C2800E802F40BE902AC
:1003EE00F40B0000400C020003000000610B000A39
:021FFE00EB0FE7
:00000001FF
