:100000001DC0EBC0EAC0E3C0E8C0E7C0E6C0E5C081
:10001000E4C0E3C0E2C0E1C0E0C0DFC0DEC0DDC0DC
:10002000DCC0DBC0DAC0D9C0D8C0D7C0D6C0D5C00C
:10003000D4C0D3C03F003F040001E40011241FBE20
:10004000CFEFCDBFDFE3DEBFE4E3F0E040E017C079
:10005000B591A59135912591059107FD0CC095911C
:100060008591EF01F92FE82F05900D92A217B307A4
:10007000D9F7FE0104C01D92A217B307E1F7EB33D5
:0C008000F40731F703D09CC0F894FFCFC8
:10008C0090E088ED84BF90930001E0E0F4E088E01C
:10009C00808B818B838B878B84E0818383E0868B41
:1000AC00E0E5F0E08081897F846080837894E0E0F3
:1000BC00F4E024E0A0E5B0E04091003F5091013F16
:1000CC006091023F7091033F452B462B472B09F45F
:1000DC006FC040E050E0BA01258384E1CDE8D0E266
:1000EC002197F1F70000908596FF2BC08150B1F756
:1000FC00268384E1CDE8D0E22197F1F700009085CA
:10010C0096FF1FC08150B1F74F5F5F4F6F4F7F4F0E
:10011C00C090003FD090013FE090023FF090033F31
:10012C004C155D056E057F05B8F242C0CDE8D0E2F6
:10013C002197F1F70000908596FF03C08150B1F72D
:10014C00BBCF268382EC92EA0197F1F700C0808541
:10015C0086FFFDCFC2ECD2EA2197F1F700C08C915B
:10016C0081608C9388958C918E7F8C934091003F0D
:10017C005091013F6091023F7091033F4F5F5F4F81
:10018C006F4F7F4F4093003F5093013F6093023F6E
:10019C007093033F82EC92EA0197F1F700C08085DF
:1001AC0086FFFDCFC2ECD2EA2197F1F700C084CFD5
:0401BC0082E3BCCF4F
:0E01C000EC010DD00BD0CE010BD0CE010AD039
:0C01CE008F9380E4809309048F911895B2
:0201DA0012CF42
:0201DC00089584
:0201DE00089582
:0201E000089580
:0201E20052DFEA
:0401E4000100000016
:00000001FF
